:100000000C946B000C9480000C9480000C94800085
:100010000C9480000C9480000C9480000C94800060
:100020000C9480000C9480000C9480000C94800050
:100030000C9480000C9480000C9480000C94800040
:100040000C9480000C9480000C9480000C94800030
:100050000C94800007634236B79BD8A71A396856BC
:1000600018AEBAAB558C1D3CB7CC5763BD6DEDFDDA
:10007000753EF6177231BF000000803F0800000097
:10008000BE922449123EABAAAA2ABECDCCCC4C3E8D
:1000900000000080BEABAAAAAA3E00000000BF007C
:1000A0000000803F0000000000084178D3BB438778
:1000B000D1133D190E3CC3BD4282AD2B3E68EC828C
:1000C00076BED98FE1A93E4C80EFFFBE01C4FF7F11
:1000D0003F000000000011241FBECFE5D8E0DEBFC6
:1000E000CDBF10E0A0E6B0E0EAE8FCE002C0059079
:1000F0000D92A037B107D9F70E9465010C94430611
:100100000C9400000E94ED010895EF92FF920F936E
:100110001F93CF938C017B0181E0E81AF108F694DC
:10012000E794F694E79461506295660F660F607CE1
:10013000C62FC42B0E94F10180E50E9406028E2D7D
:100140000E943E028C2F0E943E02C0E0F801EC0F9C
:10015000F11D80810E943E02CF5FF801EC0FF11D7E
:10016000319780818111F2CF0E945F02CF911F9160
:100170000F91FF90EF900895EF92FF920F931F93CE
:10018000CF93DF938C01D62F7A0181E0E81AF10832
:10019000F694E794F694E79441504295440F440F47
:1001A000407CC42FC22B0E94F10180E50E94060210
:1001B0008E2D0E943E028C2F0E943E020E94FC0166
:1001C00080E50E941E02C0E07801EC0EF11C0E9446
:1001D0004902F7018083CF5FF801EC0FF11D3197E1
:1001E0008081882311F0CD1778F30E9454020E9479
:1001F0005F02DF91CF911F910F91FF90EF900895D3
:100200004F925F926F927F928F929F92AF92BF9226
:10021000DF92EF92FF920F931F93CF93DF937C01B6
:10022000D62EFC0101900020E9F731978F01081BC1
:10023000190B0150812C912C540110E02CC0D0E0FE
:10024000E097602F70E080E090E00E9448039B01FF
:10025000AC0160E070E080E291E40E9443042B0175
:100260003C01BE01DD0F880B990B0E944A03A301DC
:1002700092010E94D6032B013C01C501B4010E94EA
:100280004803A30192010E94AD020E9419034B0191
:100290005C0101501F5F1D1530F4F701E10FF11DE6
:1002A000C081C111CCCFC501B401DF91CF911F91A5
:1002B0000F91FF90EF90DF90BF90AF909F908F9045
:1002C0007F906F905F904F900895CF93DF93CDB75D
:1002D000DEB7A2970FB6F894DEBF0FBECDBF0E9467
:1002E00082000E94650247E0BE016F5F7F4F8DE094
:1002F0000E94890260E670E0CE0101960E943A06F3
:10030000892BA1F544E0BE01685F7F4F8DE00E941C
:10031000890243E0BE01645F7F4F8DE00E94890245
:1003200064E0CE0108960E9400016B017C0163E04D
:10033000CE010C960E940001162F86E690E00E94E6
:10034000760244E1BE01615F7F4F8DE00E94890229
:10035000412FB601CE010F960E94850086E690E0FF
:100360000E94760218861C861F86BDCF6AE670E062
:10037000CE0101960E943A06892B09F0B4CF44E0E1
:10038000BE01685F7F4F8DE00E94890243E0BE019D
:10039000645F7F4F8DE00E94890264E0CE01089681
:1003A0000E9400016B017C0163E0CE010C960E946B
:1003B0000001162F86E690E00E947602212FA6010A
:1003C00064E1CE010F960E94BC00CE010F960E9400
:1003D000760218861C861F8686CF86E480B911B8FF
:1003E000089516BE84EA86BF06B607FEFDCF81B12A
:1003F000887F8830E1F7089584EA86BF06B607FE55
:10040000FDCF81B1887F8031E1F70895CF93C82F68
:10041000CC0FC3B984E886BF06B607FEFDCF08C07F
:100420000E94FC01C3B984E886BF06B607FEFDCF73
:1004300081B1887F8831A1F7CF910895CF93C82FDC
:10044000CC0FC3B983B1816083B986B7846886BF96
:1004500006B607FEFDCF0CC00E94FC01C3B983B1F4
:10046000816083B986B7846886BF06B607FEFDCF74
:1004700081B1887F803481F7CF91089583B984E872
:1004800086BF06B607FEFDCF81B1887F8832E1F7CF
:10049000089584EC86BF06B607FEFDCF81B1887F44
:1004A0008035E1F783B1089584E886BF06B607FE7C
:1004B000FDCF81B1887F8835E1F783B1089584E964
:1004C00086BF86B78031E9F3089583E389B98AB19D
:1004D00088618AB980B58E6880BD08955D9BFECF26
:1004E0008CB908955F9BFECF8CB108950F931F9335
:1004F000CF938C01C0E003C00E946E02CF5FF80171
:10050000EC0FF11D80818111F7CFCF911F910F91D9
:100510000895DF92EF92FF920F931F93CF93DF9393
:10052000D82E7B01D42FC0E00DC087010C0F111D08
:100530000E947202F80180838D1103C01082CD2FBA
:1005400001C0CF5FCD1788F3DF91CF911F910F913D
:10055000FF90EF90DF9008955058BB27AA270E9484
:10056000C4020C949C030E948E0338F00E949503F1
:1005700020F039F49F3F19F426F40C948B030EF409
:10058000E095E7FB0C948503E92F0E94AD0358F337
:10059000BA17620773078407950720F079F4A6F568
:1005A0000C94CF030EF4E0950B2EBA2FA02D0B0167
:1005B000B90190010C01CA01A0011124FF27591BA8
:1005C00099F0593F50F4503E68F11A16F040A22FAE
:1005D000232F342F4427585FF3CF4695379527951F
:1005E000A795F0405395C9F77EF41F16BA0B620B1E
:1005F000730B840BBAF09150A1F0FF0FBB1F661F65
:10060000771F881FC2F70EC0BA0F621F731F841FA7
:1006100048F4879577956795B795F7959E3F08F0CD
:10062000B0CF9395880F08F09927EE0F979587958F
:1006300008950E94B50388F09F5798F0B92F992725
:10064000B751B0F0E1F0660F771F881F991F1AF0BD
:10065000BA95C9F714C0B13091F00E94CF03B1E050
:1006600008950C94CF03672F782F8827B85F39F04F
:10067000B93FCCF3869577956795B395D9F73EF456
:1006800090958095709561957F4F8F4F9F4F0895FE
:10069000E89409C097FB3EF490958095709561951C
:1006A0007F4F8F4F9F4F9923A9F0F92F96E9BB27D2
:1006B0009395F695879577956795B795F111F8CF4E
:1006C000FAF4BB0F11F460FF1BC06F5F7F4F8F4FB9
:1006D0009F4F16C0882311F096E911C0772321F0AF
:1006E0009EE8872F762F05C0662371F096E8862F47
:1006F00070E060E02AF09A95660F771F881FDAF79E
:10070000880F9695879597F9089597F99F6780E8E0
:1007100070E060E008959FEF80EC089500240A9453
:100720001616170618060906089500240A941216CC
:100730001306140605060895092E0394000C11F4FF
:10074000882352F0BB0F40F4BF2B11F460FF04C0AC
:100750006F5F7F4F8F4F9F4F089557FD9058440F05
:10076000551F59F05F3F71F04795880F97FB991F10
:1007700061F09F3F79F087950895121613061406CD
:10078000551FF2CF4695F1DF08C01616170618065A
:10079000991FF1CF86957105610508940895E89435
:1007A000BB2766277727CB0197F908950E94E903B5
:1007B0000C949C030E948E0338F00E94950320F055
:1007C000952311F00C9485030C948B0311240C9445
:1007D000D0030E94AD0370F3959FC1F3950F50E0D5
:1007E000551F629FF001729FBB27F00DB11D639FE3
:1007F000AA27F00DB11DAA1F649F6627B00DA11D89
:10080000661F829F2227B00DA11D621F739FB00D2E
:10081000A11D621F839FA00D611D221F749F33279E
:10082000A00D611D231F849F600D211D822F762F37
:100830006A2F11249F5750409AF0F1F088234AF014
:10084000EE0FFF1FBB1F661F771F881F9150504080
:10085000A9F79E3F510580F00C9485030C94D003BA
:100860005F3FE4F3983ED4F3869577956795B79507
:10087000F795E7959F5FC1F7FE2B880F911D969521
:10088000879597F90895FA01EE0FFF1F309621051D
:100890003105A1F16115710561F48038BFE39B0753
:1008A00049F168949038810561F08038BFEF9B076B
:1008B00041F099234AF5FF3FE1053105210519F182
:1008C000E8940894E795D901AA2329F4AB2FBE2F09
:1008D000F85FD0F310C0FF5F70F4A695E0F7F7392A
:1008E00050F019F0FF3A38F49F779F930DD00F9096
:1008F00007FC9058089546F00C948B0360E070E07C
:1009000080E89FE308954FE79F775F934F933F936E
:100910002F930E943E052F913F914F915F910E942E
:10092000D6030C949B0429F416F00C9485030C94C4
:10093000CF030C948B030E94B503A8F39638A0F75D
:1009400007F80F92E8942BE33AEA48EB5FE70E943E
:10095000EC030F920F920F924DB75EB70F920E9469
:100960008605E4E5F0E00E94CD044F915F91EF91A0
:10097000FF91E595EE1FFF1F49F0FE57E068442701
:10098000EE0F441FFA95E1F74195550B0E940005C3
:100990000F9007FE0C94F4040895DF93CF931F93F8
:1009A0000F93FF92EF92DF927B018C01689406C057
:1009B000DA2EEF010E94E903FE01E894A59125914A
:1009C000359145915591A6F3EF010E94C402FE01B5
:1009D0009701A801DA9469F7DF90EF90FF900F91EB
:1009E0001F91CF91DF9108959B01AC0160E070E011
:1009F00080E89FE30C94BA050C9485030C942C06B4
:100A00000E94B503D8F39923C9F3940F511DA3F3A2
:100A10009150504094F059F0882332F0660F771FC0
:100A2000881F91505040C1F79E3F51052CF7880F09
:100A3000911D9695879597F908955F3FACF0983E84
:100A40009CF0BB27869577956795B79508F4B160BC
:100A50009395C1F7BB0F58F711F460FFE8CF6F5FB4
:100A60007F4F8F4F9F4FE3CF0C94D00316F00C9421
:100A70002C060C948B0368940C9485030E94B50398
:100A8000A8F39923C1F3AEF3DF93CF931F930F9392
:100A9000FF92C92FDD2788232AF02197660F771F41
:100AA000881FDAF720E030E040E85FEB9FE3883909
:100AB00020F0803E38F021968F770E94AD02ECE75F
:100AC000F0E004C00E94AD02E9EAF0E00E94CD042B
:100AD0008B01BE01EC01FB2E6F5771097595771FD5
:100AE000880B990B0E944A0328E132E741E35FE358
:100AF0000E94E903AF2D9801AE01FF900F911F9165
:100B0000CF91DF910E94C4020C949C03FA01DC0196
:100B1000AA0FBB1F9B01AC01BF5728F42227332724
:100B20004427507820C0B75190F4AB2F002446954D
:100B300037952795011CA395D2F3002071F0220F61
:100B4000331F441FB395DAF30ED00C94AC0261301E
:100B50007105A0E88A07B94630F49B01AC0166270D
:100B6000772788279078309621F02083318342833D
:100B7000538308950E94CE050C949C030E94950314
:100B800058F00E948E0340F029F45F3F29F00C9446
:100B9000850351110C94D0030C948B030E94AD0378
:100BA00068F39923B1F3552391F3951B550BBB279C
:100BB000AA2762177307840738F09F5F5F4F220FE1
:100BC000331F441FAA1FA9F335D00E2E3AF0E0E8D8
:100BD00032D091505040E695001CCAF72BD0FE2F22
:100BE00029D0660F771F881FBB1F261737074807B6
:100BF000AB07B0E809F0BB0B802DBF01FF2793586E
:100C00005F4F3AF09E3F510578F00C9485030C94A9
:100C1000D0035F3FE4F3983ED4F3869577956795CC
:100C2000B795F7959F5FC9F7880F911D96958795A2
:100C300097F90895E1E0660F771F881FBB1F6217C1
:100C400073078407BA0720F0621B730B840BBA0B7F
:100C5000EE1F88F7E09508959F3F31F0915020F402
:100C6000879577956795B795880F911D9695879588
:100C700097F90895FB01DC018D9101908019011015
:0A0C8000D9F3990B0895F894FFCF03
:100C8A005752495445004F4B0D005245414400000C
:00000001FF
